:100000000C94490B0C94DE0B0C94B80B0C94660BFF
:100010000C94660B0C94660B0C94660B0C94660B9C
:100020000C94660B0C94660B0C94660B0C94660B8C
:100030000C94660B0C94660B0C94660B0C94660B7C
:100040000C94660B0C94660B0C94660B0C94660B6C
:100050000C94660B0C94660B0C94660B0C94660B5C
:100060000C94660B0C94660B00FC203040FC8484DE
:10007000847800FC2424D800FC3048840000000070
:10008000000404FC04040084FC8400F00C30180418
:10009000F8FC9494940000000000000000000000B0
:1000A0000000000000FC94946C00FC2424D800FCA8
:1000B000949494E0584458E000FC304884000000D8
:1000C00000000404FC04040084FC8400F00C3018DC
:1000D00004F8FC949494000000000000000000006C
:1000E00000C0300804040202020201010101010102
:1000F00001010101010101E19D9DE101010D7981F4
:1001000081790D01FDFD45C5BD010101010101011F
:100110000101FDFD45453D0101F9050505F9010117
:10012000FD1D61710DFD01F9050505F90101FDFDDB
:100130000505F90101F9050505F90101FDFD45C5B3
:10014000BD0101F9050505F90101010101010101E7
:100150000101010101010202020204040830C00091
:10016000FC03000000000000000000000000000090
:100170000000000000000300000001030000000375
:100180000300000003030000010300000000000062
:100190000000030300000000000102020201000051
:1001A000030000000003000102020201000003033B
:1001B000020201000001020202010000030300002C
:1001C0000103000102020201000000000000000023
:1001D000000000000000000000000000000003FC20
:1001E000FF00000000000000000000000000000010
:1001F00000000000000000000000000000000000FF
:1002000000000000000000000000000000000000EE
:1002100000000000000000000000000000000000DE
:1002200000000000000000000000000000000000CE
:1002300000000000000000000000000000000000BE
:1002400000000000000000000000000000000000AE
:10025000000000000000000000000000000000FF9F
:10026000FF0000000000000000000000000000008F
:10027000000000000000000000000000000000007E
:10028000000000000000000000000000000000006E
:10029000000000000000000000000000000000005E
:1002A000000000000000000000000000000000004E
:1002B000000000000000000000000000000000003E
:1002C000000000000000000000000000000000002E
:1002D000000000000000000000000000000000FF1F
:1002E000FF0000000000000000000000000000000F
:1002F00000000000000000000000000000000000FE
:1003000000000000000000000000000000000000ED
:1003100000000000000000000000000000000000DD
:1003200000000000000000000000000000000000CD
:1003300000000000000000000000000000000000BD
:1003400000000000000000000000000000000000AD
:10035000000000000000000000000000000000FF9E
:10036000FF0000000000000000000000000000008E
:10037000000000000000000000000000000000007D
:10038000000000000000000000000000000000006D
:10039000000000000000000000000000000000005D
:1003A000000000000000000000000000000000004D
:1003B000000000000000000000000000000000003D
:1003C000000000000000000000000000000000002D
:1003D000000000000000000000000000000000FF1E
:1003E0003FC0000000000000000000F0505050101E
:1003F00030C0A0100010F010001010F0101000001D
:1004000000000000000000000000000000000000EC
:1004100000000000000000000000000000000000DC
:1004200000000000000000000000000000000000CC
:1004300000000000000000000000000000000000BC
:1004400000000000000000000000000000000000AC
:100450000000000000000000000000000000C03F9D
:1004600000030C1020204040404080838282828222
:10047000818080838282838280808083808080806C
:10048000808080808080808080808080808080806C
:10049000808080808080808080808080808080805C
:1004A000808080808080808080808080808080804C
:1004B000808080808080808080808080808080803C
:1004C000808080808080808080808080808080802C
:1004D000808080808080404040402020100C0300BD
:1004E00000C03008040402020202010101010101FE
:1004F00001010101010101E19D9DE101010D7981F0
:1005000081790D01FDFD45C5BD010101010101011B
:100510000101FDFD45453D0101F9050505F9010113
:10052000FD1D61710DFD01F9050505F90101FDFDD7
:100530000505F90101F9050505F90101FDFD45C5AF
:10054000BD0101F9050505F90101010101010101E3
:100550000101010101010202020204040830C0008D
:10056000FC0300000000000000000000000000008C
:100570000000000000000300000001030000000371
:10058000030000000303000001030000000000005E
:10059000000003030000000000010202020100004D
:1005A0000300000000030001020202010000030337
:1005B0000202010000010202020100000303000028
:1005C000010300010202020100000000000000001F
:1005D000000000000000000000000000000003FC1C
:1005E000FF000000000000000000E030101010E0EC
:1005F000101010E000F06080F000F050505000103B
:10060000F01000E0301050D0000000000000F000BA
:100610000000E0101010E000F06080F0E0301050BA
:10062000D0000000000000F05050B000F09090604A
:1006300000F0505050806010608000F0C02010002A
:1006400000000000000000000000000000000000AA
:10065000000000000000000000000000000000FF9B
:10066000FF00000000000000000001030202020180
:100670000202020100030001030003000000000267
:100680000302000103020203000000000000030255
:10069000020201020202010003000103010302023F
:1006A0000300000000000003020201000300000339
:1006B0000003020202030101010300030001020022
:1006C000000000000000000000000000000000002A
:1006D000000000000000000000000000000000FF1B
:1006E000FF000000000000000000F098080808F07B
:1006F000080808F000F830C0F800F828282800089A
:10070000F80800F0980828E80000000000003028F1
:1007100048C800F82020F8F0080808F000F8484819
:10072000B00808F80808000000000000F82828D8E1
:1007300000F84848B000F8282828C0B088B0C000A9
:10074000F8609008000000000000000000000000B9
:10075000000000000000000000000000000000FF9A
:10076000FF00000000000000000000010101010086
:100770000101010000010000010001000000000172
:100780000101000001010101000000000000010161
:100790000100000100000100010101000001000052
:1007A0000100000100000000000000000101010044
:1007B0000001000001000101010101000000010031
:1007C0000100000100000000000000000000000027
:1007D000000000000000000000000000000000FF1A
:1007E0003FC0000000000000000000F0505050101A
:1007F00030C0A0100010F010001010F01010000019
:1008000000000000000000000000000000000000E8
:1008100000000000000000000000000000000000D8
:1008200000000000000000000000000000000000C8
:1008300000000000000000000000000000000000B8
:1008400000000000000000000000000000000000A8
:100850000000000000000000000000000000C03F99
:1008600000030C102020404040408083828282821E
:100870008180808382828382808080838080808068
:100880008080808080808080808080808080808068
:100890008080808080808080808080808080808058
:1008A0008080808080808080808080808080808048
:1008B0008080808080808080808080808080808038
:1008C0008080808080808080808080808080808028
:1008D000808080808080404040402020100C0300B9
:1008E00000C03008040402020202010101010101FA
:1008F00001010101010101E19D9DE101010D7981EC
:1009000081790D01FDFD45C5BD0101010101010117
:100910000101FDFD45453D0101F9050505F901010F
:10092000FD1D61710DFD01F9050505F90101FDFDD3
:100930000505F90101F9050505F90101FDFD45C5AB
:10094000BD0101F9050505F90101010101010101DF
:100950000101010101010202020204040830C00089
:10096000FC03000000000000000000E03010100058
:10097000E030101030E003F0E000F10300F090935D
:100980009300001013F31010C1331090900000007A
:1009900000000303F00080C000F1E232121130E0E9
:1009A00003F090906003001112F21211001013F383
:1009B0001212C130C0C132C202F190909303000004
:1009C000010300010202020100000000000000001B
:1009D000000000000000000000000000000003FC18
:1009E000FF0000000000000000000083C644440037
:1009F00083C64444C68300C78003C70000C7404085
:100A00004000004444C7444403C644444700000037
:100A10000000000000C74143478003C644448603EA
:100A200000C74041420400008047800000C40487A2
:100A30004404070001000007004744C4444000404C
:100A400040C0404000C00000C00000C04040400026
:100A5000000000000000000000000000000000FF97
:100A6000FF000000000000000000000F1810100040
:100A70000F181010180F001F030C1F00001F020298
:100A800002000010101F10100F1810121E0000009E
:100A900000000000001F1212120D001F02060910B4
:100AA000001F12121200001C0704071C001F020D79
:100AB00010000000000000000000001F00000010F7
:100AC000101F10101F000703001F001F121212003A
:100AD000000000000000000000000000000000FF17
:100AE000FF000000000000000000003E63414100E4
:100AF0003E634141633E007F0E307F00007F090965
:100B000009000041417F41413C63414979000000B7
:100B1000000000000041417F4141007F0E307F0016
:100B20000001017F0101007F49494900007F091947
:100B3000264000073840380700701E111E70007FE5
:100B400040404000000000000000000000000000E5
:100B5000000000000000000000000000000000FF96
:100B6000FF000000000000000000009894A464E072
:100B7000584458E0001C6080601CFC949494000071
:100B8000000000788484847800FC1860FC00000079
:100B9000000000FC94949400FC94949400FC2424A1
:100BA0001800FC2424D87884848478F00C3018044D
:100BB000F80000000000000000000000000000003D
:100BC0000000000000000000000000000000000025
:100BD000000000000000000000000000000000FF16
:100BE0003FC0000000000000000000F05050501016
:100BF00030C0A0100010F010001010F01010000015
:100C000000000000000000000000000000000000E4
:100C100000000000000000000000000000000000D4
:100C200000000000000000000000000000000000C4
:100C300000000000000000000000000000000000B4
:100C400000000000000000000000000000000000A4
:100C50000000000000000000000000000000C03F95
:100C600000030C102020404040408083828282821A
:100C70008180808382828382808080838080808064
:100C80008080808080808080808080808080808064
:100C90008080808080808080808080808080808054
:100CA0008080808080808080808080808080808044
:100CB0008080808080808080808080808080808034
:100CC0008080808080808080808080808080808024
:100CD000808080808080404040402020100C0300B5
:100CE00000C03008040402020202010101010101F6
:100CF00001010101010101E19D9DE101010D7981E8
:100D000081790D01FDFD45C5BD0101010101010113
:100D10000101FDFD45453D0101F9050505F901010B
:100D2000FD1D61710DFD01F9050505F90101FDFDCF
:100D30000505F90101F9050505F90101FDFD45C5A7
:100D4000BD0101F9050505F90101010101010101DB
:100D50000101010101010202020204040830C00085
:100D6000FC03000000000000000000000000000084
:100D70000000000000000300000001030000000369
:100D80000300000003030000010300000000000056
:100D90000000030300000000000102020201000045
:100DA000030000000003000102020201000003032F
:100DB0000202010000010202020100000303000020
:100DC0000103000102020201000000000000000017
:100DD000000000000000000000000000000003FC14
:100DE000FF0000000000000000000086898991607B
:100DF00000000101FF01010000F02E212EF0000093
:100E0000FF111131EE00000101FF0101000000009F
:100E100000000000000101FF010100008181FF814D
:100E2000810000FF0C100CFF0000FF898989000081
:100E300000FF111131EE0000000000000000000072
:100E400000000000000000000000000000000000A2
:100E5000000000000000000000000000000000FF93
:100E6000FF00000000000000000000000080808003
:100E700000008080808000000080800000800000F2
:100E80008080808000000080808080800000008062
:100E900080808000000000000000000080808080D2
:100EA0008000008080808080000080000000800042
:100EB0000080808080000000808080800000000032
:100EC0000000000000000000000000000000000022
:100ED000000000000000000000000000000000FF13
:100EE000FF000000000000000000003E61404040A4
:100EF000003E614040611F00007F030C707F0000D6
:100F00007F04040400000040407F4040001E214058
:100F100044447C00000000000000000000007F004E
:100F200000000040407F404000007F0608067F0030
:100F3000007F4444440000007F0808187700000048
:100F400000000000000000000000000000000000A1
:100F5000000000000000000000000000000000FF92
:100F6000FF00000000000000000000C04040400002
:100F70000040C00000C04000004040C040400000B1
:100F80004040C040400000000000000000000000A1
:100F90000000000000000000000000000000000051
:100FA0000000000000000000000000000000000041
:100FB0000000000000000000000000000000000031
:100FC0000000000000000000000000000000000021
:100FD000000000000000000000000000000000FF12
:100FE0003FC00000000000000000003F222222005D
:100FF0000020300F070930200020203F2020000073
:1010000000003F00000000000000000000000000A1
:1010100000000000000000000000000000000000D0
:1010200000000000000000000000000000000000C0
:1010300000000000000000000000000000000000B0
:1010400000000000000000000000000000000000A0
:101050000000000000000000000000000000C03F91
:1010600000030C1020204040404080808080808021
:101070008080808080808080808080808080808070
:101080008080808080808080808080808080808060
:101090008080808080808080808080808080808050
:1010A0008080808080808080808080808080808040
:1010B0008080808080808080808080808080808030
:1010C0008080808080808080808080808080808020
:1010D000808080808080404040402020100C0300B1
:1010E00000000000885050200000000000000000B8
:1010F0008080C0C0C0C0C0C0C0C0C0C08080000070
:101100000000000000000000C0F0FCFEFF7F1F0F89
:1011100007070707070707070F1FFFFFFEFCF0C0C1
:1011200000000000FEFFFFFFFF0F00000080C0C0B6
:10113000E0F0F8FC7C3E1F1FFFFFFFFFFFFC0000FC
:10114000001FFFFFFFFFFE7E3E1F0F07070301008A
:1011500000000000C0FFFFFFFF7F0700000000014C
:10116000070F1F3F7F7EFCF8F8F8F8F8F8F8FC7ED0
:101170007F3F3F1F07030000000000000000000049
:1011800000000000000000808080808000000000DF
:101190000000000000000000000030F0F8F87C7C47
:1011A0003E3E1FFFFFFFFFFFFF00000000000000AA
:1011B000000000000000000001010000000000002D
:1011C000FFFFFFFFFFFF0000000000000000000025
:1011D00000000000000000000000000000FFFFFF12
:1011E000FFFFFF0000000000000000000000000002
:1011F0000000F8F8F8F8F8F8F8F8FFFFFFFFFFFF35
:10120000F8F8F8F8F8F8F800000000000000000016
:1012100000000080808080808080808080000000CE
:101220000000000000000000000000040C3E3F1F12
:101230000F0F0F0F0F0F0F0F1F3FFFFFFEFCF8E008
:10124000000000000000000000000000000000009E
:101250000000000000C0F0FFFFFFFF3F0F00000094
:101260000000000000000000000080C0E0F0F8FC7A
:101270007E3F1F0F07030100000000000000000078
:101280000000F0F8FCFEFFFFFFFFFBF9F8F8F8F8AC
:10129000F8F8F8F8F8F8F8F800000000000000008E
:1012A000808080808080808080808080808000003E
:1012B000000000000000000000000000000F0F0F01
:1012C0000F0F0F0F0F0F0F0F0F0F3FFFFFFEFCF859
:1012D00040000000000000000000000000F0F0F0FE
:1012E000F0F0F0F0F0F0F8FCBF9F9F0F030000005B
:1012F00000000000000000000000030303030303DC
:1013000003030303070F3FFFFFFEFCF8000000008C
:10131000000000F0F0F0F0F0F0F0F0F0F0F0F0F09D
:10132000F0F8FCFF7F7F3F0F070000000000000087
:10133000000000000000000000000080808080802D
:10134000808080000000000000000000000000001D
:10135000000000C0E0F8FCFF3F1F1FFFFFFFFFFF82
:101360000000000000000000000000C0E0F8FCFFEA
:101370003F1F070100000000FFFFFFFFFF0000000C
:101380000000000000F8FEFFFFFFF7F1F0F0F0F0C2
:10139000F0F0F0F0F0FFFFFFFFFFF0F0F0F0F000F2
:1013A0000000030303030303030303030303030313
:1013B0000303FFFFFFFFFF0303030303000000001D
:1013C000000080808080808080808080808080801D
:1013D000808080808000000000000000000000FF8E
:1013E000FFFFFFFF1F1F1F1F1F1F1F1F1F1F1F1F8D
:1013F0001F1F00000000000000000000FFFFFFFFB3
:10140000FFF0F0F0E0E0E0E0E0E0E0C0C0800000ED
:1014100000000000000000000003030303030303B7
:10142000030303030303070FFFFFFFFFFEF80000A2
:10143000000000000000F0F0F0F0F0F0F0F0F0F04C
:10144000F0F0F8F8FC7F7F3F1F070100000000006C
:10145000000000000000000000000000000000008C
:1014600000000080808000000000000000000000FC
:1014700080E0F0F8FCFC7E3E3E1F1F1F1F1F1F1F59
:101480001F1F1F0000000000000000E0FEFFFFFF24
:10149000FFC7C0C0E0E0E0E0E0E0E0E0E0E0C08006
:1014A00080000000000000007FFFFFFFFFFF070734
:1014B00003030303030303030307FFFFFFFFFEF818
:1014C000000000000000071F3F7FFFFEF8F0F0F073
:1014D000F0F0F0F0F0F8FCFF7F7F1F0F030000003A
:1014E00000008080808080808080808080808080FC
:1014F0008080808080808080800000000000001F4D
:101500001F1F1F1F1F1F1F1F1F1F1F1F1F1F1FDF2B
:10151000FFFFFFFFFF3F0000000000000000000091
:101520000000000000000000C0F0FCFFFFFF3F0FC4
:1015300003000000000000000000000000000000A8
:1015400000C0F0FCFFFFFF3F0F03000000000000A1
:101550000000000000000000000080F0FCFFFFFF22
:101560003F0F03000000000000000000000000002A
:10157000000000000000000000008080808080806B
:1015800080808080800000000000000000000000DB
:1015900000F0FCFEFEFF3F0F0F0F0F0F0F0F0F0F9E
:1015A0000FBFFFFFFEFCF000000000000000030F73
:1015B0001F3F7F7EFCF8F0F0E0E0E0F0F8FC3F3FFA
:1015C0001F0F030000000000000080E0F8FCFCFE9C
:1015D0001F0F070703030307070F1F3FFFFEFCF85A
:1015E000F0000000000000071F3F7FFFFFF8F0F051
:1015F000F0F0F0F0F0F0F0F0F8FF7F7F3F0F000028
:1016000000000000000000000000808080808080DA
:10161000808080808000000000000000000000004A
:1016200000E0F8FCFEFF7F1F0F0F0F0F0F0F0F0FD3
:101630001F3FFFFEFEF8F0800000000000063FFFA5
:10164000FFFFFFF0E0C0C0C0C0C0C0C0C0C0E0E34A
:10165000FFFFFFFFFF000000000000000001030388
:10166000070707070707070707070383FFFFFFFFB2
:10167000FF1F00000000000000F8F8F8F8F8F8F884
:10168000F8F8F8F8F87C7C3E3F1F0F0703000000D5
:10169000000011241FBECFEFD8E0DEBFCDBF11E0A8
:1016A000A0E0B1E0E2E9F1E202C005900D92A832BB
:1016B000B107D9F721E0A8E2B1E001C01D92AB3536
:1016C000B207E1F70E94D00F0C94C7100C940000F1
:1016D0000F931F93CF93DF93CDB7DEB72B970FB642
:1016E000F894DEBF0FBECDBF082F60E887E00E94F0
:1016F000040C60E888E00E94040C60E889E00E9425
:10170000040C60E88AE00E94040CCE0101960E945D
:10171000240D8A811B81800F8C3328F08C531F5F2E
:10172000183108F010E00E94520C682F6F778BE0A0
:101730000E94040C812F0E94520C682F6F718CE064
:101740000E94040C60E88DE00E94040C67E08EE0CB
:101750002B960FB6F894DEBF0FBECDBFDF91CF91B1
:101760001F910F910C94040C64E08EE00C94040C17
:101770001F920F920FB60F9211242F933F934F9306
:101780005F936F937F938F939F93AF93BF93EF93E9
:10179000FF938AE191E00E94050FFF91EF91BF91C5
:1017A000AF919F918F917F916F915F914F913F91F9
:1017B0002F910F900FBE0F901F9018951F920F92B0
:1017C0000FB60F9211242F933F934F935F936F9314
:1017D0007F938F939F93AF93BF93EF93FF9381E298
:1017E00091E00E94050FFF91EF91BF91AF919F9102
:1017F0008F917F916F915F914F913F912F910F90BA
:101800000FBE0F901F901895CF93DF93D82FC62F40
:1018100080ED0E94710E8D2F0E94C40E8C2F0E94AD
:10182000C40EDF91CF910C94BC0E0F931F93CF93F6
:10183000DF93D82FC62F8A0180ED0E94710E8D2F65
:101840000E94C40E811115C081ED0E94BA0E0E9443
:10185000DF0E0130110511F4C82B02C0C095C8235A
:1018600080ED0E94710E8D2F0E94C40E8C2F0E945D
:10187000C40EDF91CF911F910F910C94BC0ECF93AA
:10188000C82F80ED0E94710E8C2F0E94C40E81ED36
:101890000E94BA0E0E94DF0EC82F0E94BC0E8C2F31
:1018A000CF9108956AE00E94FB0F20E1829F900D86
:1018B0001124892F0895982F87FF02C09FE0980F69
:1018C0009595959595959595990F292F220F220F0E
:1018D000920F8F7887FF03C08150806F8F5F890FD1
:1018E0000895EF92FF920F931F93CF93DF93CDB79D
:1018F000DEB72B970FB6F894DEBF0FBECDBFE982DF
:10190000FA820B831C832D833E834F8380ED0E94DC
:10191000710E80E00E94C40E89810E94520C0E94C8
:10192000C40E8A810E94520C0E94C40E8B810E94B8
:10193000520C0E94C40E8C810E94C40E8D810E94A4
:10194000520C0E94C40E8E810E94520C0E94C40E42
:101950008F810E94520C0E94C40E2B960FB6F894F1
:10196000DEBF0FBECDBFDF91CF911F910F91FF90D2
:10197000EF900C94BC0E4EEF5FEF63E08FE00E949F
:10198000150C64E08EE00C94040CCF92EF92FF9261
:101990000F931F93CF93DF93CDB7DEB72B970FB67F
:1019A000F894DEBF0FBECDBF8C2D8F0D8C3308F0A9
:1019B0008C530E94520CF82E8BE00E943F0C8078D2
:1019C000682F6F298BE02B960FB6F894DEBF0FBE01
:1019D000CDBFDF91CF911F910F91FF90EF90CF90EE
:1019E0000C94040CEF92FF920F931F93CF93DF930D
:1019F000CDB7DEB767970FB6F894DEBF0FBECDBF89
:101A000050E04C595F4F58874F8331503E832C83B1
:101A10000B83FA82E9828FEF9FEF9C878B87CE0141
:101A200001960E94110F60587C4B8249974C679633
:101A30000FB6F894DEBF0FBECDBFDF91CF911F91DF
:101A40000F91FF90EF9008955F926F927F928F9227
:101A50009F92AF92BF92CF92DF92EF92FF920F933D
:101A60001F93CF93DF93CDB7DEB72B970FB6F894C4
:101A7000DEBF0FBECDBF6C0180ED0E94710E80E015
:101A80000E94C40E81ED0E94BA0E0E94D50E782EDF
:101A90000E94D50E982E0E94D50E082F0E94D50EBA
:101AA000882E0E94D50EA82E0E94D50E182F0E94B7
:101AB000DF0EB82E0E94BC0E872D0E945B0C582EA4
:101AC000892D0E945B0C682E802F8F730E945B0C07
:101AD000782E8A2D0E945B0C982E812F8F710E9488
:101AE0005B0CA82E8B2D0E945B0CB82E80E0582F2B
:101AF000E52CF62C072D182D292D3A2D4B2D60E0C5
:101B000070E00E94F20CF601508261827282838240
:101B10009482A582B6826783708781879287C60187
:101B20002B960FB6F894DEBF0FBECDBFDF91CF91DD
:101B30001F910F91FF90EF90DF90CF90BF90AF90EB
:101B40009F908F907F906F905F900895CF93DF93D9
:101B5000D82F88E70E94710EC82F80E00E94C40E23
:101B6000C82B21F48D2F0E94C40EC82F0E94BC0EDA
:101B700081E0C11101C080E0DF91CF910895806BB9
:101B80000C94A60DCF93DF93C82F8F700E94A60DE3
:101B9000D82F8C2F82958F7080610E94A60DD82B34
:101BA00081E009F480E0DF91CF9108951F93CF93F6
:101BB000DF93D0E0C0E08D2F0E94BF0DC82B80E0E6
:101BC0000E94C20DC82B88E70E94710E80E40E941B
:101BD000C40EC82B14E880E00E94C40EC82B11501C
:101BE000D1F70E94BC0EDF5FD83029F781E0C11128
:101BF00001C080E0DF91CF911F9108950F931F9353
:101C0000CF93DF932FEF81EE94E0215080409040FE
:101C1000E1F700C0000000E011E0D0E0F8018191A0
:101C20008F010E94A60DD82BF1E00A311F07B1F7F2
:101C30002FEF81EE94E0215080409040E1F700C00A
:101C400000000E94D60DC82F8FEA0E94A60DCD2B52
:101C5000C82B81E009F480E0DF91CF911F910F91B3
:101C60000895EF92FF920F931F93CF93DF937C0120
:101C7000D0E0C0E08D2F0E94BF0DC82B82E00E94F3
:101C8000C20DC82B88E70E94710EC82B80E40E9409
:101C9000C40EC82B00E010E0F701E00FF11F8491A3
:101CA0000E94C40EC82B0F5F1F4F00381105A1F70B
:101CB0000E94BC0EDF5F80E8E80EF11CD830D1F640
:101CC00081E0C11101C080E0DF91CF911F910F91A0
:101CD000FF90EF9008951092B9008CE08093B800C7
:101CE000089594EA9093BC009091BC0097FFFCCFBC
:101CF0009091B900987F983021F0903111F081E0F7
:101D000008958093BB0084E88093BC008091BC0060
:101D100087FFFCCF8091B900887F883111F0803433
:101D200071F780E0089524EA34E844E92093BC0088
:101D30009091BC0097FFFCCF9091B900987F9830AC
:101D400011F0903199F78093BB003093BC009091D3
:101D5000BC0097FFFCCF9091B900987F903211F0B2
:101D6000983539F44093BC009091BC0094FDFCCFB1
:101D7000DDCF08950C94710E84E98093BC008091AE
:101D8000BC0084FDFCCF08958093BB0084E8809361
:101D9000BC008091BC0087FFFCCF9091B900987F78
:101DA00081E0983209F480E0089584EC8093BC00CF
:101DB0008091BC0087FFFCCF8091BB00089584E830
:101DC0008093BC008091BC0087FFFCCF8091BB005A
:101DD00008959B01AC0160E472E48FE090E00E9402
:101DE0000910215031093093C5002093C40088E0C8
:101DF0008093C10086E08093C20008959091C00056
:101E000095FFFCCF8093C6000895CF93DF93EC013C
:101E10008991882319F00E94FE0EFACFDF91CF91AD
:101E20000895A0E0B0E0E7E1FFE00C947310EC014E
:101E3000EE81FF818F0104561109B9F0CF0185565B
:101E400091096C0197FF03C023E0C20ED11CD59409
:101E5000C794D594C7946CE97FEF0E944710C60ED3
:101E6000D71E8FEFC81AD80A02C0C12CD12C2DE67C
:101E700031E0D8010E945B100D2C000CEE08FF0829
:101E8000C60ED71EE81EF91E8B81082E000C990B7A
:101E90008C01015011092D8122302CF4222379F17B
:101EA000015E1F4F2CC0CF018459984F0E94BC0F78
:101EB000282F30E0255C3F4F200F311F8D81082EE9
:101EC000000C990B02978530910514F027563F4F6F
:101ED00065E070E00E944710AC0197FF02C04F5FC1
:101EE0005F4F559547959DE3949F8001959F100DF9
:101EF0001124020F131F80FF02C0015E1F4FC80193
:101F0000110FAA0BBB0B9C01AD012C0D3D1D4E1DED
:101F10005F1D60E871E581E090E00E9437104B01A1
:101F20005C01AA810A2E000CBB0B20E13EE00E945E
:101F30005B106B017C01A9810A2E000CBB0B2CE30A
:101F400030E00E945B10C60ED71EE81EF91E6881A5
:101F5000862F660F990BAA0BBB0B8C0D9D1DAE1D1A
:101F6000BF1DBC01CD01680D791D8A1D9B1DCDB71C
:101F7000DEB7ECE00C948F109C0123703327232BE9
:101F800059F464E670E00E944710892B39F46370BD
:101F9000772781E0672B19F080E0089581E00895AC
:101FA0008BB186608BB90E946B0E0E94FE0D60E8BB
:101FB00075E280E090E00E94E90E80EE9CE00E94D5
:101FC000310E83B7817F846083BF83B7816083BF15
:101FD0008AE08093690083E08DBB8FE08093560197
:101FE00085E0809355018EE18093540182E08093D7
:101FF00057017894FFCF87FB082E062687FD819531
:1020000067FD61950E942B100EF4919507FC819558
:102010000895A1E21A2EAA1BBB1BFD010DC0AA1F29
:10202000BB1FEE1FFF1FA217B307E407F50720F041
:10203000A21BB30BE40BF50B661F771F881F991FBC
:102040001A9469F760957095809590959B01AC0105
:10205000BD01CF010895991B79E004C0991F96171F
:1020600008F0961B881F7A95C9F780950895DB01C3
:102070008F939F930E946210BF91AF91A29F800D9A
:10208000911DA39F900DB29F900D1124089597FB71
:10209000072E16F4009407D077FD09D00E94A410F3
:1020A00007FC05D03EF4909581959F4F089570955B
:1020B00061957F4F08950E94B810B7FF0895821B65
:1020C000930B08950E94B810A59F900DB49F900D9A
:1020D000A49F800D911D112408952F923F924F923D
:1020E0005F926F927F928F929F92AF92BF92CF92A8
:1020F000DF92EF92FF920F931F93CF93DF93CDB7B1
:10210000DEB7CA1BDB0B0FB6F894DEBF0FBECDBF28
:1021100009942A88398848885F846E847D848C84F9
:102120009B84AA84B984C884DF80EE80FD800C8102
:102130001B81AA81B981CE0FD11D0FB6F894DEBFE5
:102140000FBECDBFED010895AA1BBB1B51E107C017
:10215000AA1FBB1FA617B70710F0A61BB70B881F37
:10216000991F5A95A9F780959095BC01CD010895C6
:10217000A29FB001B39FC001A39F700D811D1124C8
:10218000911DB29F700D811D1124911D0895F89429
:02219000FFCF7F
:10219200AED580A83FD30040AD8B332000A0C0DA7B
:1021A200128180D922DB282EA4A6494E54310D0A71
:0821B20000494E54300D0A00F3
:00000001FF
